:100000000C94AF000C94CC000C94CC000C94CC005D
:100010000C94CC000C94CC000C94CC000C94CC0030
:100020000C94CC000C94CC000C94C2010C944502AE
:100030000C94CC000C94CC000C94CC000C94CC0010
:100040000C94CC000C94CC000C94CC000C94CC0000
:100050000C94CC000C94CC000C94CC000C94CC00F0
:100060000C94CC000C94CC000C94CC000C94CC00E0
:100070000C94CC000C94CC000C94CC000C94CC00D0
:100080000C94CC000C94CC000C94CC000C94CC00C0
:100090000C94CC000C94CC000C94CC000C94CC00B0
:1000A0000C94CC000C94CC000C94CC00050C0901F1
:1000B000A101850109E909EA09E215002501750197
:1000C00095038102097815002501750195018106C6
:1000D000750495018101C0050B0905A1018502097F
:1000E0002F15FF2501750295018126092F15002581
:1000F00001750195018106092115002501750195FC
:1001000001810275049501810105080902090909A7
:10011000170918091E0920092115002501750195E7
:10012000079122750195019101C009022200010188
:1001300000803209040000010300000009211101C0
:100140000001227E0007058103080012120100024F
:1001500000000020D804D5E60001010200011124AE
:100160001FBECFEFDAE0DEBFCDBF11E0A0E0B1E00F
:10017000E0E9F9E002C005900D92AE33B107D9F77E
:1001800021E0AEE3B1E001C01D92A834B207E1F76F
:100190000E9476030C94C6040C940000FC0180813C
:1001A0009181892B71F589B1282F209540913E01CD
:1001B000942F9095922320933E0125FD07C024FDA6
:1001C00008C092FF09C020E034E008C020E031E020
:1001D00005C020E032E002C020E030E097FD38604A
:1001E00096FD286091FF02C0236007C0482341FFAD
:1001F00002C0216002C093FD24603183208380E02F
:10020000089581E00895FC018081882311F0889A87
:1002100001C0889880E00895F894E8EDF0E08081CE
:100220008F77808380818068808380818F7D8083C9
:10023000A7EDB0E08C9181608C9380818161808397
:10024000E0EEF0E080818B7F808380818E7F8083F1
:10025000789483E090E00E94A503909343018093FB
:10026000420123E0FC0111922A95E9F7089570E01C
:100270004617570758F4BA0109C0621B730B820F67
:10028000931F2091E8002E7F2093E80061157105EF
:10029000E1F02091E80020FFFCCF2091E80022FD52
:1002A00016C09B016132710510F020E230E040E0A1
:1002B00050E0421753070CF7FC01E40FF51FE491DF
:1002C000E093F1004F5F5F4FF4CF80E008958FEF30
:1002D0000895262F30E02E5F3F4F4217530708F452
:1002E0009A0122503109369527954091E80040FF48
:1002F000FCCF4091E80042FD1CC06E5F6093F100AE
:1003000043E04093F100FC0180E090E08217930706
:1003100049F05081418132965093F1004093F100B1
:100320000196F4CF8091E8008E7F8093E80080E012
:1003300008958FEF0895FC0120813181222369F017
:10034000C90188279183808382E08093F100209304
:10035000F10081E080933F0113C080913F01882329
:1003600041F082E08093F1001092F10010923F0181
:1003700007C01182108281E08093F1003093F10078
:1003800080E008951F920F920FB60F9211242F93C1
:100390003F934F935F936F937F938F939F93AF930D
:1003A000BF93EF93FF938091DA0080FF19C0809193
:1003B000DA008E7F8093DA008091D90080FF0EC032
:1003C00089B5826189BD09B400FEFDCF8091E2004C
:1003D0008C608093E2001092400146C019BC44C07A
:1003E0008091E1001092E10083FF22C08091E10042
:1003F000877F8093E1001092E90091E09093EB00F9
:100400008091EC008E7F8093EC008091ED00826201
:100410008093ED00109240018091EE0087FF24C090
:100420009093EA001092EA0088E08093F0001CC0EC
:1004300082FF1AC0809140018823B1F08091E100D1
:100440008B7F8093E10081E08093E9008091E80058
:1004500085FF0AC0809142019091430101960E945C
:100460009B018AE38093E800FF91EF91BF91AF91E8
:100470009F918F917F916F915F914F913F912F91BC
:100480000F900FBE0F901F9018951F920F920FB6EE
:100490000F9211242F933F934F935F936F937F930A
:1004A0008F939F93AF93BF93EF93FF93CF93DF937C
:1004B000CDB7DEB7A097DEBFCDBF1092E900809127
:1004C000E80083FFF5C02091F1003091F1008091A8
:1004D000F1004091F10090E0942B4091F1004091A7
:1004E000F1004091F1006091F1005091E800527FDD
:1004F0005093E800353079F42111DAC02091E800FA
:100500002E7F2093E8002091E80020FFFCCF806838
:100510008093E300D2C050E0562B363009F045C03E
:10052000203809F07CC0913019F4ECE4F1E07EC091
:10053000963009F4BDC0923031F462E28AE291E073
:100540000E943701BAC0933009F0B2C081110EC0C9
:100550008091060190910701A0910801B0910901D5
:1005600089839A83AB83BC8364E01AC0813059F4D9
:1005700080E2EAE0F1E0DE01119601900D928A95A9
:10058000E1F76EE10DC0823009F092C084E1EAE249
:10059000F1E0DE01119601900D928A95E1F762E19A
:1005A000CE0101960E94690188C03930F1F4211111
:1005B00046C0809340018091E8008E7F8093E800E0
:1005C00081E08093E9008093EB008091EC00816CE6
:1005D0008093EC008091ED0086608093ED008EE1C9
:1005E0008093EA001092EA0068C0383051F4203855
:1005F00009F05EC08091E80080FFFCCF809140014F
:100600004FC031112CC0203809F052C08091E80051
:1006100080FFFCCF1092F1001092F10043C021380E
:1006200009F046C0913229F4ECE3F1E06491CF0186
:1006300087CF9232E9F56EE78CEA90E081CF2132E4
:10064000B9F58091E80082FFFCCF8091F1008091A4
:10065000F100E0914201F0914301808323C03130E9
:1006600071F4213A29F58091E80080FFFCCF809158
:1006700042019091430101960E949B0113C03A30C0
:1006800029F42132A9F4809341010CC0323081F465
:10069000213A71F48091E80080FFFCCF8091410104
:1006A0008093F1008091E8008E7F8093E80005C080
:1006B0008091EB0081628093EB00A0960FB6F894D6
:1006C000DEBF0FBECDBFDF91CF91FF91EF91BF9104
:1006D000AF919F918F917F916F915F914F913F91DA
:1006E0002F910F900FBE0F901F9018958FEF8BB921
:1006F0008AB11AB8809A0E940C018C01C0E0D2E342
:100700007C018FEFE81AF80A8C2F6D2F0E94990355
:10071000911104C0C7010E94CE00C0E0C8010E9430
:100720000301CF5F8FE99FE00197F1F700C0000060
:10073000EBCF991B79E004C0991F961708F0961B20
:10074000881F7A95C9F7809508950F931F93CF93CB
:10075000DF938230910510F482E090E0E091460151
:10076000F091470120E030E0A0E0B0E0309719F1CF
:10077000408151810281138148175907C8F08417BD
:10078000950769F4109731F012960C93129713960F
:100790001C9327C0009346011093470122C02115E6
:1007A000310519F04217530718F49A01BD01EF0102
:1007B000DF01F801DBCF21153105F9F0281B390BDA
:1007C0002430310580F48A819B816115710521F007
:1007D000FB019383828304C0909347018093460179
:1007E000FE01329644C0FE01E20FF31F8193919304
:1007F00022503109398328833AC020914401309135
:100800004501232B41F420910201309103013093E3
:1008100045012093440120910001309101012115EF
:10082000310541F42DB73EB74091040150910501C7
:10083000241B350BE0914401F0914501E217F307C9
:10084000A0F42E1B3F0B2817390778F0AC014E5F40
:100850005F4F2417350748F04E0F5F1F5093450137
:10086000409344018193919302C0E0E0F0E0CF0116
:10087000DF91CF911F910F910895CF93DF93009750
:1008800009F481C0FC01329713821282A0914601C3
:10089000B0914701109781F420813181820F931F1D
:1008A00020914401309145012817390751F5F09303
:1008B0004501E093440167C0ED0120E030E0CE1730
:1008C000DF0740F44A815B819E0141155105F1F03B
:1008D000EA01F5CFD383C28340815181840F951FF4
:1008E000C817D90759F488819981840F951F0296FA
:1008F000918380838A819B81938382832115310533
:1009000029F4F0934701E09346013DC0E901FB83E0
:10091000EA8349915991C40FD51FEC17FD0761F483
:1009200080819181840F951F0296E90199838883C4
:10093000828193819B838A83E0E0F0E012968D911F
:100940009C911397009719F0FD01DC01F7CF8D9171
:100950009C9111979D012E5F3F4F820F931F209115
:100960004401309145012817390769F4309729F47B
:10097000109247011092460102C013821282B09376
:100980004501A0934401DF91CF910895F894FFCFE2
:10099000000048012000090413044D0061007200AA
:1009A000740069006A006E0020004300610073005B
:1009B0007400650065006C0000004C00610075006B
:0E09C0006E00630068007000610064000000BB
:00000001FF
