:100000000C94A5000C94C2000C94C2000C94C20085
:100010000C94C2000C94C2000C94C2000C94C20058
:100020000C94C2000C94C2000C94E4000C94B40133
:100030000C94C2000C94C2000C94C2000C94C20038
:100040000C94C2000C94C2000C94C2000C94C20028
:100050000C94C2000C94C2000C94C2000C94C20018
:100060000C94C2000C94C2000C94C2000C94C20008
:100070000C94C2000C94C2000C94C2000C94C200F8
:100080000C94C2000C94C2000C94C2000C94C200E8
:100090000C94C2000C94C2000C94C2000C94C200D8
:1000A0000C94C2000C94C2000C94C2000501090714
:1000B000A101050B15FF2501092F75029501812668
:1000C000050C1500250109E2750195018106050B56
:1000D000092F750195018106050C09EA09E97501E9
:1000E00095028102050B0921750195018102050C1C
:1000F00009E2750195018106050815002501090928
:100100000917091809200921750195019122750126
:1001100095039101C0090222000101008032090407
:100120000000010300000009211101000122690003
:10013000070583030800121201000200000020D806
:1001400004D5E60001010200010011241FBECFEF1B
:10015000DAE0DEBFCDBF11E0A0E0B1E0E4E6F6E01A
:1001600002C005900D92A833B107D9F721E0A8E3AA
:10017000B1E001C01D92AD33B207E1F70E94010367
:100180000C9430030C940000F894E8EDF0E08081CA
:100190008F77808380818068808380818F7D80835A
:1001A000A7EDB0E08C9181608C9380818161808328
:1001B000E0EEF0E080818B7F808380818E7F808382
:1001C00078948BE391E008950F920FB60F921F92EF
:1001D00011248F939F938091DA0080FF1FC080913C
:1001E000DA008E7F8093DA008091D90080FF14C0FE
:1001F00089B5826189BD09B400FEFDCF8091E2001E
:100200008C608093E200109238019F918F911F9033
:100210000F900FBE0F90189519BCF7CF8091E10099
:100220001092E10083FF22C08091E100877F8093DC
:10023000E1001092E90091E09093EB008091EC00D6
:100240008E7F8093EC008091ED0082628093ED00C0
:10025000109238018091EE0087FFD7CF9093EA008B
:100260001092EA0088E08093F000CFCF909138019F
:10027000992359F282FFC9CF8091E1008B7F80934F
:10028000E10083E08093E9008091E80085FFBDCF25
:1002900080913C018093F1008AE38093E800B5CF20
:1002A0009C0170E04617570708F4BA016115710503
:1002B00011F480E008958091E80080FFFCCF8091E8
:1002C000E80082FD1DC0CB016132710510F080E2B3
:1002D00090E050E040E0F901E40FF51FE491E09375
:1002E000F1004F5F5F4F48175907ACF3681B790B5C
:1002F000280F391F8091E8008E7F8093E800D6CFC9
:100300008FEF0895262F30E02E5F3F4F421753079F
:1003100008F49A0122503109369527954091E8005A
:1003200040FFFCCF4091E80042FD1CC06E5F60932F
:10033000F10043E04093F100FC0190E080E082177F
:10034000930739F48091E8008E7F8093E80080E085
:1003500008955081418132965093F1004093F1000D
:100360000196EDCF8FEF08951F920F920FB60F9267
:1003700011242F933F934F935F936F937F938F93AA
:100380009F93AF93BF93EF93FF93CF93DF93CDB73B
:10039000DEB7A097DEBFCDBF1092E9008091E800E4
:1003A00083FF4CC02091F1003091F1008091F10069
:1003B0009091F1004091F1004091F1004091F100E5
:1003C0006091F1005091E800527F5093E800353081
:1003D00039F5211133C02091E8002E7F2093E800E9
:1003E0002091E80020FFFCCF80688093E300A09676
:1003F0000FB6F894DEBF0FBECDBFDF91CF91FF9156
:10040000EF91BF91AF919F918F917F916F915F918C
:100410004F913F912F910F900FBE0F901F90189505
:10042000363009F049C0562F203809F085C0E7E37F
:10043000F1E0913009F487C0963031F48091EB00FF
:1004400081628093EB00D3CF923031F462E285E198
:1004500091E00E945001CBCF933081F7811112C0FF
:100460008091000190910101A0910201B0910301DE
:1004700089839A83AB83BC8364E0CE0101960E949A
:100480008201B5CF813059F480E2E4E0F1E0DE0191
:10049000119601900D928A95E1F76EE1EECF8230D0
:1004A00069F684E1E4E2F1E0DE01119601900D923B
:1004B0008A95E1F762E1E1CF3930F9F421114DC0BD
:1004C000809338018091E8008E7F8093E80083E07C
:1004D0008093E90081E08093EB008091EC00816CD7
:1004E0008093EC008091ED0086608093ED008EE1BA
:1004F0008093EA001092EA007ACF383061F4203815
:1005000009F09CCF8091E80080FFFCCF80913801FA
:100510008093F1000DC0311136C0203809F08ECF24
:100520008091E80080FFFCCF1092F1001092F10062
:100530008091E8008E7F24C0213809F07FCF91326E
:1005400029F4E7E2F1E06491CF0183CF923209F020
:1005500075CF69E68CEA90E07CCF213209F06ECF4E
:100560008091E80082FFFCCF8091F10080933B01F5
:100570008091E8008E7F8093E8008091E8008B7F77
:100580008093E80034CF313051F4213A09F056CF4E
:100590008091E80080FFFCCF80913C01B9CF3A30D8
:1005A00031F4213209F04ACF80933A01C1CF323081
:1005B00009F044CF213A09F041CF8091E80080FF53
:1005C000FCCF80913A01A4CFFC0189B18095982F8E
:1005D0009C7F20913901282721FF03C081FF06C09D
:1005E000936090838093390180E008959160F9CF02
:1005F000FC018081882319F0889A80E0089588980A
:10060000FCCF8FEF8BB98AB11AB8809A0E94C400D0
:100610008C01C0E0D2E37C018FEFE81AF80A8C2F3E
:100620006D2F0E942403911104C0C7010E94E402AF
:10063000C0E0C8010E94F802CF5F8FE99FE00197F8
:10064000F1F700C00000EBCF991B79E004C0991FBF
:10065000961708F0961B881F7A95C9F7809508951C
:04066000F894FFCF3C
:10066400090413044D0061007200740069006A00FB
:100674006E00200043006100730074006500650093
:100684006C0000004C00610075006E00630068009F
:08069400700061006400000029
:00000001FF
