:100000000C948F000C94AC000C94AC000C94AC00DD
:100010000C94AC000C94AC000C94AC000C94AC00B0
:100020000C94AC000C94AC000C94A1010C94240230
:100030000C94AC000C94AC000C94AC000C94AC0090
:100040000C94AC000C94AC000C94AC000C94AC0080
:100050000C94AC000C94AC000C94AC000C94AC0070
:100060000C94AC000C94AC000C94AC000C94AC0060
:100070000C94AC000C94AC000C94AC000C94AC0050
:100080000C94AC000C94AC000C94AC000C94AC0040
:100090000C94AC000C94AC000C94AC000C94AC0030
:1000A0000C94AC000C94AC000C94AC000501090657
:1000B000A101050719E029E715002501750195083B
:1000C0008102050719002965150025657508950247
:1000D0008100050C1500250109EA09E97501950261
:1000E0008102750195068101C0090222000101000B
:1000F0008032090400000103000100092111010000
:1001000001223D00070581030800121201000200D0
:10011000000020D804D5E6000101020001001124EE
:100120001FBECFEFDAE0DEBFCDBF11E0A0E0B1E04F
:10013000E2E5F9E002C005900D92AE33B107D9F7C0
:1001400021E0AEE3B1E001C01D92A734B207E1F7B0
:100150000E945C030C94A7040C940000FC018081B5
:100160009181A281B381892B8A2B8B2BB1F589B127
:10017000809584FD04C085FF04C022E003C021E017
:1001800001C020E090913E019095982380933E011C
:1001900091FD0AC092FD0AC093FD0AC096FD0AC0F7
:1001A00097FF0AC04EE009C04CE207C042E105C01B
:1001B00040E103C04BE001C040E050E060E070E08F
:1001C000BA0155274427420F511D611D711D4083FF
:1001D00051836283738380E0089581E008958823CA
:1001E00011F0889A01C0889880E00895F894E8EDAD
:1001F000F0E080818F778083808180688083808138
:100200008F7D8083A7EDB0E08C9181608C9380819D
:1002100081618083E0EEF0E080818B7F808380814C
:100220008E7F8083789485E090E00E94860390938F
:1002300042018093410125E0FC0111922A95E9F7E2
:10024000089570E04617570758F4BA0109C0621BB9
:10025000730B820F931F2091E8002E7F2093E800FC
:1002600061157105E1F02091E80020FFFCCF20919D
:10027000E80022FD16C09B016132710510F020E2FA
:1002800030E040E050E0421753070CF7FC01E40F68
:10029000F51FE491E093F1004F5F5F4FF4CF80E0F2
:1002A00008958FEF0895262F30E02E5F3F4F4217BD
:1002B000530708F49A012250310936952795409149
:1002C000E80040FFFCCF4091E80042FD1CC06E5F9B
:1002D0006093F10043E04093F100FC0180E090E086
:1002E0008217930749F05081418132965093F10073
:1002F0004093F1000196F4CF8091E8008E7F8093C7
:10030000E80080E008958FEF0895FC01408151815D
:10031000628173811082118212821382872F992742
:10032000AA27BB27E1EFF0E08083CB01AA27BB27F8
:100330008083BB27A72F962F852F8083408380E063
:1003400008951F920F920FB60F9211242F933F938F
:100350004F935F936F937F938F939F93AF93BF93CD
:10036000EF93FF938091DA0080FF19C08091DA004B
:100370008E7F8093DA008091D90080FF0EC089B50E
:10038000826189BD09B400FEFDCF8091E2008C60DE
:100390008093E20010923F0146C019BC44C0809196
:1003A000E1001092E10083FF22C08091E100877F8D
:1003B0008093E1001092E90091E09093EB0080912E
:1003C000EC008E7F8093EC008091ED008262809340
:1003D000ED0010923F018091EE0087FF24C09093C2
:1003E000EA001092EA0088E08093F0001CC090912F
:1003F0003F019923C1F082FF16C08091E1008B7FFD
:100400008093E10081E08093E9008091E80085FF1E
:100410000AC0809141019091420101960E9485019C
:100420008AE38093E800FF91EF91BF91AF919F9194
:100430008F917F916F915F914F913F912F910F908D
:100440000FBE0F901F9018951F920F920FB60F922C
:1004500011242F933F934F935F936F937F938F93C9
:100460009F93AF93BF93EF93FF93CF93DF93CDB75A
:10047000DEB7A097DEBFCDBF1092E9008091E80003
:1004800083FFFCC02091F1003091F1008091F100D8
:100490004091F10090E0942B4091F1004091F100E7
:1004A0004091F1006091F1005091E800527F50932B
:1004B000E800353079F42111E1C02091E8002E7F69
:1004C0002093E8002091E80020FFFCCF8068809313
:1004D000E300D9C050E0562B363009F045C0203833
:1004E00009F07CC0913019F4EBE0F1E07EC0963069
:1004F00009F4C4C0923031F462E289EE90E00E94C7
:100500002101C1C0933009F0B9C081110EC08091A2
:10051000060190910701A0910801B091090189831A
:100520009A83AB83BC8364E01AC0813059F480E2C3
:10053000EAE0F1E0DE01119601900D928A95E1F773
:100540006EE10DC0823009F099C084E1EAE2F1E089
:10055000DE01119601900D928A95E1F762E1CE01DC
:1005600001960E9453018FC03930F1F4211147C028
:1005700080933F018091E8008E7F8093E80081E0C6
:100580008093E9008093EB008091EC00816C809374
:10059000EC008091ED0086608093ED008EE1809309
:1005A000EA001092EA006FC0383051F4203809F0A8
:1005B00065C08091E80080FFFCCF80913F0156C06C
:1005C000311133C0203809F059C08091E80080FF14
:1005D000FCCF1092F1001092F1004AC0213809F0CE
:1005E0004DC0913229F4EBEFF0E06491CF0187CF59
:1005F000923209F043C06DE38CEA90E080CF213263
:10060000E9F58091E80082FFFCCF8091F100E09154
:100610004101F091420180838091E8008E7F8093B8
:10062000E8008091E8008B7F26C0313071F4213AD8
:1006300029F58091E80080FFFCCF809141019091E5
:10064000420101960E94850113C03A3029F42132FB
:10065000A9F4809340010CC0323081F4213A71F446
:100660008091E80080FFFCCF809140018093F100F1
:100670008091E8008E7F8093E80005C08091EB00B8
:1006800081628093EB00A0960FB6F894DEBF0FBE98
:10069000CDBFDF91CF91FF91EF91BF91AF919F912E
:1006A0008F917F916F915F914F913F912F910F901B
:1006B0000FBE0F901F9018958FEF8BB98AB11AB8A3
:1006C000809A0E94F60020E0C2E38C010F5F1F4F6A
:1006D000822F6C2F0E947A03911104C0C8010E94DE
:1006E000AE0020E02F5F8FE99FE00197F1F700C097
:1006F0000000EECF991B79E004C0991F961708F00F
:10070000961B881F7A95C9F7809508950F931F93BC
:10071000CF93DF938230910510F482E090E0E09176
:100720004501F091460120E030E0A0E0B0E03097D4
:1007300019F1408151810281138148175907C8F08E
:100740008417950769F4109731F012960C9312975D
:1007500013961C9327C0009345011093460122C0B5
:100760002115310519F04217530718F49A01BD01FC
:10077000EF01DF01F801DBCF21153105F9F0281B6E
:10078000390B2430310580F48A819B816115710514
:1007900021F0FB019383828304C0909346018093F0
:1007A0004501FE01329644C0FE01E20FF31F819322
:1007B000919322503109398328833AC02091430113
:1007C00030914401232B41F4209102013091030127
:1007D00030934401209343012091000130910101A5
:1007E0002115310541F42DB73EB7409104015091D8
:1007F0000501241B350BE0914301F0914401E21700
:10080000F307A0F42E1B3F0B2817390778F0AC0133
:100810004E5F5F4F2417350748F04E0F5F1F509310
:100820004401409343018193919302C0E0E0F0E0E2
:10083000CF01DF91CF911F910F910895CF93DF9357
:10084000009709F481C0FC01329713821282A091B3
:100850004501B0914601109781F420813181820FCA
:10086000931F20914301309144012817390751F516
:10087000F0934401E093430167C0ED0120E030E0D4
:10088000CE17DF0740F44A815B819E014115510577
:10089000F1F0EA01F5CFD383C28340815181840F07
:1008A000951FC817D90759F488819981840F951F1E
:1008B0000296918380838A819B8193838283211511
:1008C000310529F4F0934601E09345013DC0E9016B
:1008D000FB83EA8349915991C40FD51FEC17FD079B
:1008E00061F480819181840F951F0296E9019983BB
:1008F0008883828193819B838A83E0E0F0E0129673
:100900008D919C911397009719F0FD01DC01F7CFB1
:100910008D919C9111979D012E5F3F4F820F931FE8
:1009200020914301309144012817390769F4309729
:1009300029F4109246011092450102C013821282DE
:10094000B0934401A0934301DF91CF910895F894AF
:02095000FFCFD7
:10095200000047012000090413044D0061007200E9
:10096200740069006A006E00200043006100730099
:100972007400650065006C0000004C0061007500A9
:0E0982006E00630068007000610064000000F9
:00000001FF
