:100000000C947C000C9499000C9499000C94990029
:100010000C9499000C9499000C9499000C949900FC
:100020000C9499000C9499000C94C5000C947C01DC
:100030000C9499000C9499000C9499000C949900DC
:100040000C9499000C9499000C9499000C949900CC
:100050000C9499000C9499000C9499000C949900BC
:100060000C9499000C9499000C9499000C949900AC
:100070000C9499000C9499000C9499000C9499009C
:100080000C9499000C9499000C9499000C9499008C
:100090000C9499000C9499000C9499000C9499007C
:1000A0000C9499000C9499000C9499000501090690
:1000B000A10105071904290B1500250175019508F3
:1000C0008101C00902220001010080320904000000
:1000D000010300000009211101000122170007059A
:1000E00081030800121201000200000020412337A2
:1000F000000001010200010011241FBECFEFDAE071
:10010000DEBFCDBF11E0A0E0B1E0E2EEF4E002C05E
:1001100005900D92A833B107D9F721E0A8E3B1E02B
:1001200001C01D92AA33B207E1F70E946B020C9442
:100130006F020C940000F8948091D7008160809346
:10014000D70089B5826189BD09B400FEFDCF8091D9
:10015000D80080698093D8008091D8008F7D8093EB
:10016000D8008091E0008B7F8093E0008091E000D8
:100170008E7F8093E0008091E2008C608093E200AB
:1001800010923901789480E008951F920F920FB673
:100190000F9211248F939F938091E1001092E100C0
:1001A00083FF22C08091E100877F8093E10010925D
:1001B000E90091E09093EB008091EC008E7F8093BA
:1001C000EC008091ED0082628093ED001092390185
:1001D0008091EE0087FF1FC09093EA001092EA0022
:1001E00088E08093F00017C090913901992399F02D
:1001F00082FF11C08091E1008B7F8093E10081E05C
:100200008093E9008091E80085FF05C01092F1001D
:1002100088E38093E8009F918F910F900FBE0F901D
:100220001F901895461750F4642F08C0641B8A0F5E
:100230009B1F2091E8002E7F2093E8006623E1F0C9
:100240002091E80020FFFCCF2091E80022FD16C09D
:10025000462F613208F040E220E030E0A42FB0E009
:100260002A173B071CF7FC01E20FF31FE491E09310
:10027000F1002F5F3F4FF4CF80E008958FEF089596
:10028000262F30E02F5F3F4FE42FF0E02E173F077F
:1002900014F442E0460F50E09A012250310937FF32
:1002A00002C02F5F3F4F359527954091E80040FFF2
:1002B000FCCF4091E80042FD1DC06E5F6093F100ED
:1002C00043E04093F100FC0180E090E03327821787
:1002D00093074CF45081418132965093F100409342
:1002E000F1000196F4CF8091E8008E7F8093E800C2
:1002F00080E008958FEF08951F920F920FB60F922E
:1003000011242F933F934F935F936F937F938F931A
:100310009F93AF93BF93EF93FF93CF93DF93CDB7AB
:10032000DEB7A097DEBFCDBF1092E9008091E80054
:1003300083FFB8C05091F1002091F1008091F1004D
:100340003091F10090E0932B3091F1003091F10069
:100350004091F1006091F1003091E800327F3093DC
:10036000E800253069F42091E8002E7F2093E80012
:100370002091E80020FFFCCF80688093E30092C0CA
:10038000263009F053C0913019F4E5EEF0E00FC0CB
:10039000963009F445C0923031F462E283EC90E08B
:1003A0000E9412017FC0913229F4E5EDF0E06491E2
:1003B000CF01F6CF923221F467E18CEA90E0F0CFE2
:1003C000933071F581110EC080910001909101016F
:1003D000A0910201B091030189839A83AB83BC830E
:1003E00064E00CC0813079F480E2E4E0F1E0DE0109
:1003F000119601900D928A95E1F76EE1CE0101967A
:100400000E9440014FC0823059F484E1E4E2F1E0FF
:10041000DE01119601900D928A95E1F762E1EECF2F
:100420008091EB0081628093EB003CC02930F1F4B5
:10043000511138C0809339018091E8008E7F8093FC
:10044000E80081E08093E9008093EB008091EC006C
:10045000816C8093EC008091ED0086608093ED00CC
:100460008EE18093EA001092EA001CC0283059F413
:100470005038C1F48091E80080FFFCCF80913901B1
:100480008093F1000AC021110DC08091E80080FF27
:10049000FCCF1092F1001092F1008091E8008E7F65
:1004A0008093E800A0960FB6F894DEBF0FBECDBFD4
:1004B000DF91CF91FF91EF91BF91AF919F918F917C
:1004C0007F916F915F914F913F912F910F900FBE50
:1004D0000F901F901895809A0E949B00FFCFF89470
:0204E000FFCF4C
:1004E200090413044D0061007200740069006A007F
:1004F2006E00200043006100730074006500650017
:100502006C0000004C00610075006E006300680022
:080512007000610064000000AC
:00000001FF
