:100000000C94A5000C94C2000C94C2000C94C20085
:100010000C94C2000C94C2000C94C2000C94C20058
:100020000C94C2000C94C2000C9401010C94D701F2
:100030000C94C2000C94C2000C94C2000C94C20038
:100040000C94C2000C94C2000C94C2000C94C20028
:100050000C94C2000C94C2000C94C2000C94C20018
:100060000C94C2000C94C2000C94C2000C94C20008
:100070000C94C2000C94C2000C94C2000C94C200F8
:100080000C94C2000C94C2000C94C2000C94C200E8
:100090000C94C2000C94C2000C94C2000C94C200D8
:1000A0000C94C2000C94C2000C94C2000501090714
:1000B000A101050B15FF2501092F75029501812668
:1000C000050C1500250109E2750195018106050B56
:1000D000092F750195018106050C09EA09E97501E9
:1000E00095028102050B0921750195018102050C1C
:1000F00009E2750195018106050815002501090928
:100100000917091809200921750195019122750126
:1001100095039101C0090222000101008032090407
:100120000000010300000009211101000122690003
:10013000070581030800121201000200000020419F
:100140002337000001010200010011241FBECFEF80
:10015000DAE0DEBFCDBF11E0A0E0B1E0EAE6F6E014
:1001600002C005900D92A833B107D9F721E0A8E3AA
:10017000B1E001C01D92AD33B207E1F70E94040364
:100180000C9433030C940000FC0199B19095292F35
:100190002C7F30913801392731FF05C091FF02C013
:1001A000236001C0216020839093380180E008958E
:1001B000FC018081882311F0889A01C0889880E032
:1001C0000895F894E8EDF0E080818F778083808156
:1001D0008068808380818F7D8083A7EDB0E08C91E3
:1001E00081608C93808181618083E0EEF0E080818A
:1001F0008B7F808380818E7F808378948BE391E0F6
:1002000008951F920F920FB60F9211248F939F9310
:100210008091DA0080FF19C08091DA008E7F809390
:10022000DA008091D90080FF0EC089B5826189BD56
:1002300009B400FEFDCF8091E2008C608093E20063
:100240001092390143C019BC41C08091E100109265
:10025000E10083FF22C08091E100877F8093E1006D
:100260001092E90091E09093EB008091EC008E7F7A
:100270008093EC008091ED0082628093ED001092FB
:1002800039018091EE0087FF21C09093EA0010921F
:10029000EA0088E08093F00019C090913901992319
:1002A000A9F082FF13C08091E1008B7F8093E10071
:1002B00081E08093E9008091E80085FF07C080918C
:1002C0003C018093F1008AE38093E8009F918F9135
:1002D0000F900FBE0F901F901895461750F4642F83
:1002E00008C0641B8A0F9B1F2091E8002E7F20937B
:1002F000E8006623E1F02091E80020FFFCCF209188
:10030000E80022FD16C0462F613208F040E220E0EE
:1003100030E0A42FB0E02A173B071CF7FC01E20FE6
:10032000F31FE491E093F1002F5F3F4FF4CF80E0A3
:1003300008958FEF0895262F30E02F5F3F4FE42F71
:10034000F0E02E173F0714F442E0460F50E09A0108
:100350002250310937FF02C02F5F3F4F3595279557
:100360004091E80040FFFCCF4091E80042FD1DC0F5
:100370006E5F6093F10043E04093F100FC0180E088
:1003800090E03327821793074CF4508141813296D5
:100390005093F1004093F1000196F4CF8091E80072
:1003A0008E7F8093E80080E008958FEF08951F927C
:1003B0000F920FB60F9211242F933F934F935F9399
:1003C0006F937F938F939F93AF93BF93EF93FF931D
:1003D000CF93DF93CDB7DEB7A097DEBFCDBF10922E
:1003E000E9008091E80083FFF1C02091F100309195
:1003F000F1008091F1004091F10090E0942B409148
:10040000F1004091F1004091F1006091F1005091B4
:10041000E800527F5093E800353079F42111D6C0BE
:100420002091E8002E7F2093E8002091E80020FF33
:10043000FCCF80688093E300CEC0363009F045C021
:10044000203809F07CC0913019F4E7E3F1E07EC078
:10045000963009F4BBC0923031F462E285E191E05C
:100460000E946D01B8C0933009F0B0C081110EC078
:100470008091000190910101A0910201B0910301CE
:1004800089839A83AB83BC8364E01AC0813059F4BA
:1004900080E2E4E0F1E0DE01119601900D928A9590
:1004A000E1F76EE10DC0823009F090C084E1E4E232
:1004B000F1E0DE01119601900D928A95E1F762E17B
:1004C000CE0101960E949B0186C03930F1F42111C2
:1004D00046C0809339018091E8008E7F8093E800C8
:1004E00081E08093E9008093EB008091EC00816CC7
:1004F0008093EC008091ED0086608093ED008EE1AA
:100500008093EA001092EA0066C0383051F4203837
:1005100009F05CC08091E80080FFFCCF8091390138
:100520004DC031112FC0203809F050C08091E80033
:1005300080FFFCCF1092F1001092F10041C02138F1
:1005400009F044C0913229F4E7E2F1E06491CF016F
:1005500087CF9232D9F569E68CEA90E081CF2132DB
:10056000A9F58091E80082FFFCCF8091F100809393
:100570003B018091E8008E7F8093E8008091E80045
:100580008B7F21C0313049F4213A01F58091E80098
:1005900080FFFCCF80913C0111C03A3029F4213218
:1005A000A9F480933A010CC0323081F4213A71F4FD
:1005B0008091E80080FFFCCF80913A018093F100A8
:1005C0008091E8008E7F8093E80005C08091EB0069
:1005D00081628093EB00A0960FB6F894DEBF0FBE49
:1005E000CDBFDF91CF91FF91EF91BF91AF919F91DF
:1005F0008F917F916F915F914F913F912F910F90CC
:100600000FBE0F901F9018958FEF8BB98AB11AB853
:10061000809A0E94E1008C01C0E0D2E37C018FEF60
:10062000E81AF80A8C2F6D2F0E942703911104C03D
:10063000C7010E94C400C0E0C8010E94D800CF5F7B
:100640008FE99FE00197F1F700C00000EBCF991B05
:1006500079E004C0991F961708F0961B881F7A95B9
:0A066000C9F780950895F894FFCFC4
:10066A00090413044D0061007200740069006A00F5
:10067A006E0020004300610073007400650065008D
:10068A006C0000004C00610075006E006300680099
:08069A00700061006400000023
:00000001FF
