:100000000C9456000C9460000C9460000C946000FA
:100010000C9460000C9460000C9460000C946000E0
:100020000C9460000C9460000C9460000C946000D0
:100030000C9460000C9460000C9460000C946000C0
:100040000C9460000C9460000C9460000C946000B0
:100050000C9460000C9460000C9460000C946000A0
:100060000C9460000C9460000C9460000C94600090
:100070000C9460000C9460000C9460000C94600080
:100080000C9460000C9460000C9460000C94600070
:100090000C9460000C9460000C9460000C94600060
:1000A0000C9460000C9460000C94600011241FBE3E
:1000B000CFEFDAE0DEBFCDBF0E9462000C94A0005B
:1000C0000C940000809A889A2FEF80E792E02150EC
:1000D00080409040E1F700C0000088982FEF80E753
:1000E00092E0215080409040E1F700C00000889AE3
:1000F0002FEF80E792E0215080409040E1F700C070
:10010000000088982FEF80E792E0215080409040D7
:10011000E1F700C00000889A2FEF83EC99E02150AE
:1001200080409040E1F700C0000088982FEF80E702
:1001300092E0215080409040E1F700C00000C3CF22
:04014000F894FFCF61
:00000001FF
