:100000000C947C000C9499000C9499000C94990029
:100010000C9499000C9499000C9499000C949900FC
:100020000C9499000C9499000C94DC000C949501AC
:100030000C9499000C9499000C9499000C949900DC
:100040000C9499000C9499000C9499000C949900CC
:100050000C9499000C9499000C9499000C949900BC
:100060000C9499000C9499000C9499000C949900AC
:100070000C9499000C9499000C9499000C9499009C
:100080000C9499000C9499000C9499000C9499008C
:100090000C9499000C9499000C9499000C9499007C
:1000A0000C9499000C9499000C9499000501090690
:1000B000A10105071904290B1500250175019508F3
:1000C0008102C009022200010100803209040000FF
:1000D000010300000009211101000122170007059A
:1000E00081030800121201000200000020412337A2
:1000F000000001010200010011241FBECFEFDAE071
:10010000DEBFCDBF11E0A0E0B1E0E8E9F5E002C05C
:1001100005900D92A833B107D9F721E0A8E3B1E02B
:1001200001C01D92AC33B207E1F70E94BD020C94EE
:10013000CA020C940000FC0199B19093380190958B
:100140009083992311F0889A01C088982FEF80E757
:1001500092E0215080409040E1F700C0000080E034
:100160000895F8948091D70081608093D70089B575
:10017000826189BD09B400FEFDCF8091D8008069FD
:100180008093D8008091D8008F7D8093D800809193
:10019000E0008B7F8093E0008091E0008E7F809371
:1001A000E0008091E2008C608093E20010923A01BE
:1001B000789489E391E008951F920F920FB60F9201
:1001C00011248F939F938091E1001092E10083FFAF
:1001D00022C08091E100877F8093E1001092E900C6
:1001E00091E09093EB008091EC008E7F8093EC0087
:1001F0008091ED0082628093ED0010923A0180912F
:10020000EE0087FF21C09093EA001092EA0088E098
:100210008093F00019C090913A019923A9F082FFD0
:1002200013C08091E1008B7F8093E10081E0809397
:10023000E9008091E80085FF07C080913901809333
:10024000F1008AE38093E8009F918F910F900FBE99
:100250000F901F901895461750F4642F08C0641B28
:100260008A0F9B1F2091E8002E7F2093E8006623D1
:10027000E1F02091E80020FFFCCF2091E80022FD72
:1002800016C0462F613208F040E220E030E0A42F93
:10029000B0E02A173B071CF7FC01E20FF31FE491C3
:1002A000E093F1002F5F3F4FF4CF80E008958FEF90
:1002B0000895262F30E02F5F3F4FE42FF0E02E17F8
:1002C0003F0714F442E0460F50E09A0122503109F2
:1002D00037FF02C02F5F3F4F359527954091E800CB
:1002E00040FFFCCF4091E80042FD1DC06E5F60936F
:1002F000F10043E04093F100FC0180E090E03327FF
:10030000821793074CF45081418132965093F1004B
:100310004093F1000196F4CF8091E8008E7F8093A6
:10032000E80080E008958FEF08951F920F920FB6B6
:100330000F9211242F933F934F935F936F937F936B
:100340008F939F93AF93BF93EF93FF93CF93DF93DD
:10035000CDB7DEB7A097DEBFCDBF1092E900809188
:10036000E80083FFF1C02091F1003091F10080910D
:10037000F1004091F10090E0942B4091F100409108
:10038000F1004091F1006091F1005091E800527F3E
:100390005093E800353079F42111D6C02091E8005F
:1003A0002E7F2093E8002091E80020FFFCCF80689A
:1003B0008093E300C9C0363009F048C0203809F006
:1003C0007FC0913019F4E5EEF0E081C09630C1F1C4
:1003D000923031F462E283EC90E00E942B01B4C0D1
:1003E000933071F581110EC080910001909101014F
:1003F000A0910201B091030189839A83AB83BC83EE
:1004000064E00CC0813079F480E2E4E0F1E0DE01E8
:10041000119601900D928A95E1F76EE1CE01019659
:100420000E94590191C0823059F484E1E4E2F1E084
:10043000DE01119601900D928A95E1F762E1EECF0F
:100440008091EB0081628093EB007EC03930F1F443
:10045000211146C080933A018091E8008E7F8093FD
:10046000E80081E08093E9008093EB008091EC004C
:10047000816C8093EC008091ED0086608093ED00AC
:100480008EE18093EA001092EA005EC0383051F4A9
:10049000203809F059C08091E80080FFFCCF80919E
:1004A0003A014BC031112DC0203809F04DC0809168
:1004B000E80080FFFCCF1092F1001092F1003FC0E5
:1004C000213809F041C0913229F4E5EDF0E0649162
:1004D000CF0183CF9232C1F567E18CEA90E07DCF06
:1004E000213291F58091E80082FFFCCF8091F100EC
:1004F0008091E8008E7F8093E8008091E8008B7FF8
:1005000021C0313049F4213AF9F48091E80080FFAC
:10051000FCCF8091390111C03A3029F42132A1F485
:1005200080933B010CC0323079F4213A69F4809118
:10053000E80080FFFCCF80913B018093F100809127
:10054000E8008E7F8093E800A0960FB6F894DEBF97
:100550000FBECDBFDF91CF91FF91EF91BF91AF91D2
:100560009F918F917F916F915F914F913F912F91CB
:100570000F900FBE0F901F9018958FEF8BB98AB117
:100580001AB8809A0E94B100EC011882CE010E9434
:080590009B00FCCFF894FFCFA3
:10059800090413044D0061007200740069006A00C8
:1005A8006E00200043006100730074006500650060
:1005B8006C0000004C00610075006E00630068006C
:0805C8007000610064000000F6
:00000001FF
